:04000000020059326F
:01000B0032C2
:0100130032BA
:01001B0032B2
:0100230032AA
:03002B000201FBD4
:0300330002013295
:01003B003292
:03004300023F0079
:01004B003282
:03005300023F0069
:1C00B200750800750900750A02750B00750CF4750D01750EF4750F01C200C201BD
:0300E000020056C5
:030056000207BCE2
:2000E300AF827401B54C0280157402B54C0280127405B54C02800F740AB54C12800C7E48C6
:2001030080107E24800C7E0080087E6C800475820022EF60067DE07F0080047D1C7F00EDD7
:20012300F4FFE5A05207ED5E4FF5A075820122C2DC32C0E0C082C083D2005391EF90E65D35
:200143007401F0D083D082D0E032C021C0E0C0F0C082C083C007C006C005C004C003C0025F
:20016300C001C000C0D075D00075820012120B5391EF90E65D7410F0D0D0D000D001D002D3
:20018300D003D004D005D006D007D083D082D0F0D0E0D02132C021C0E0C0F0C082C083C085
:2001A30007C006C005C004C003C002C001C000C0D075D00075820112120B5391EF90E65D3E
:2001C3007420F0D0D0D000D001D002D003D004D005D006D007D083D082D0F0D0E0D0213224
:2001E300C0E0C082C083D2015391EF90E65D7408F0D083D082D0E032C0E0C007C006C0D0AE
:2002030075D000B287AE0EAF0F150E74FFB50E02150FEE4F700A850C0E850D0FB2A0D2A1A8
:20022300C2CFD0D0D006D007D0E032E582FF30E00BADB17E004305088DB1800353B1F7EFA3
:2002430030E408AEB14306018EB12253B1FE22850A4C754D00905DC01213EAAE82AF83ACEA
:20026300097D00C3EC9EED64808FF063F08095F0400990E640E053E07FF02290E640E0FFC8
:2002830043078090E640EFF02285820A7401B50A0280057402B50A18AF0A74072FF50B90CE
:2002A300E618F090E61AE50BF0120252758201227582002290E6F574FFF000000000E5BBD6
:2002C30060FC90E6047480F00000000090E618E4F00000000090E61AE4F00000000090E625
:2002E300047402F00000000090E6047406F00000000090E618E50BF00000000090E61AE5CA
:200303000BF00000000090E604E4F02290E6F574FFF000000000E50870057E06FF80047EBA
:20032300027F0090E648EEF0221202B77EE87F03EE24FFFCEF34FFFD8C068D07EC4D70F0DD
:20034300E5BB30E7FB0000000090E6D07428F00000000090E6D1E4F0E50870057E06FF8096
:20036300047E047F008EBB22AF8290E680E030E7067D1C7E3D80047DA67E3DEF75F010A428
:200383002416FBE435F0FCEB2DFDEC3EFC7E80EFF508703590E612E4F090E61474E0F0909C
:2003A300E6E27401F08D828C838EF01213CD90E625F074012DFAE43CFB8E078A828B838FFF
:2003C300F01213CD90E624F02290E61274D8F090E614E4F090E6D204F08D828C838EF01280
:2003E30013CD90E621F00DBD00010C8D828C838EF01213CDFF90E62074075FF08D828C83B1
:200403008EF01213CDC423541F90E64004F0020252AF827E00EE75F004A4FCADF024C6F5ED
:2004230082ED3416F583E493FBB5070280080EBE14E375820022EC24C6FCED3416FD8C82E0
:200443008D83A3E493FDA3E493FEA3E493FF75AF07759DE4759E007C208C031CEB60168DD8
:20046300828E838FF01213CDFBA3AD82AE8390E67CEBF080E47F608F061FEE600790E67C6C
:20048300E4F080F375820122AF82BF00028064BF0103020522BF0203020530BF050302056D
:2004A3003EBF0A0302054CBF140302055ABF3203020568BF6403020576BF69028017BF6AB5
:2004C300028021BF6E02802BBF78028035BF9602803F020584750C19750D0075CAC075CBB2
:2004E30063020588750C1E750D0075CACB75CB7D020588750C32750D0075CAE075CBB10249
:200503000588750C64750D0075CAF075CBD8020588750CFA750D0075CA6075CBF0806675E7
:200523000CF4750D0175CA3075CBF88058750CE8750D0375CA1875CBFC804A750CC4750DA4
:200543000975CA7075CBFE803C750C88750D1375CA3875CBFF802E750C10750D2775CA9CCF
:2005630075CBFF8020750CA8750D6175CAD875CBFF8012750C50750DC375CAEC75CBFF80A5
:20058300047582002275820122AD4CAE4DAF4E8D828E838FF0E50812131B75820122E582E3
:2005A300700685108212036B75820122758200227582012290E6BBE0FE7F0090E6BAE07CC4
:2005C300004207EC420690E6BFE0FC7D0090E6BEE07A004205EA420490E6A0E020E1F99088
:2005E300E6B8E0FBBB40028073BBC00280030206B8ED4C70030206BCC374409DE49C500675
:200603007A407B0080048D028C0390E6A0E020E1F98A457546007547407548E77549008F99
:20062300438E44758251C007C006C005C004C002120E52D002D004D005D006D00790E68AE8
:20064300E4F00000000090E68BEAF07B00EDC39AFDEC9BFCEA2FFFEB3EFE8095ED4C60595D
:2006630090E68BE4F090E6A0E020E1F990E68BE0FB8B38753900753A40753BE7753C008F9F
:20068300368E37758251C007C006C005C004C003120DBDE582D003D004D005D006D007705F
:2006A30003F582227A00EB2FFFEA3EFEEDC39BFDEC9AFC80A77582002275820122758200C7
:2006C30022AF82C00712030FD007C2A0D2A1750EE8750F03BFE0004015EF2419401090E655
:2006E3008AE4F090E68BF090E6A0E020E1F9BFA2028023BFE0028021BFE1028028BFE20283
:20070300802FBFE3028033BFE4028047BFE502804BBFE65E80530205B790E740E0F54C7512
:2007230082000200E390E740E0F54C7582010200E390E740E0F58202041490E740E0FFBF1D
:20074300010DD2A0C2A1850C0E850D0F12032C7582012290E740E0F58202028C90E740E0E3
:20076300F58212022E7582012290E740E0F58202048B7582002290E613E4F090E615F09083
:20078300E6C2F090E6C37480F090E6C0E4F090E6F4F012030F754C017582001200E3754CAA
:2007A300017582011200E375820112041475820212028C75820002036B90E600E054E74451
:2007C30010F01208D8120779D2E890E668E0FF43070890E668EFF090E65CE0FF4307019080
:2007E300E65CEFF0E0FF43071090E65CEFF0E0FF43072090E65CEFF0E0FF43070890E65CEE
:20080300EFF0D2DDD2AF75CA3075CBF875C800D2ADD2CA90E680E043E00AF09005DC12133E
:200823007690E680E053E0F7F090E672E4F090E671F090E670F075B109F5A0F58075B6FF83
:2008430075B4FF75B2FFC2A0D2A11000028003120EB610010280F390E682E043E0C0F09046
:20086300E6817401F0AE877F004306018E8700000000000000E513701C90E682E030E6071D
:2008830090E682E020E0D090E682E030E70790E682E020E1C290E682E030E60790E682E04F
:2008A30020E00E90E682E030E7A090E682E030E19990000512137690E680E0FF4307019036
:2008C300E680EFF090000F12137690E680E053E0FEF002084D7E107F3E754C30754D3175A4
:2008E3004E32754F3375503475513575523675533775543875553975564175574275584360
:20090300755944755A45755B4674182EFCE43FFD90E507E0FB5303F0E4C4CBC4540F6BCB55
:20092300540FCB6BCB30E30244F0EB244CF987038C828D83EBF074162EFCE43FFD90E507E0
:20094300E0FB53030FEB244CF987038C828D83EBF074142EFCE43FFD90E508E0FB5303F00D
:20096300E4C4CBC4540F6BCB540FCB6BCB30E30244F0EB244CF987038C828D83EBF074129A
:200983002EFCE43FFD90E508E0FB53030FEB244CF987038C828D83EBF074102EFCE43FFDA8
:2009A30090E509E0FB5303F0E4C4CBC4540F6BCB540FCB6BCB30E30244F0EB244CF987033A
:2009C3008C828D83EBF0740E2EFCE43FFD90E509E0FB53030FEB244CF987038C828D83EBAA
:2009E300F0740C2EFCE43FFD90E50AE0FB5303F0E4C4CBC4540F6BCB540FCB6BCB30E30251
:200A030044F0EB244CF987038C828D83EBF0740A2EFCE43FFD90E50AE0FB53030FEB244CE6
:200A2300F987038C828D83EBF074082EFCE43FFD90E50BE0FB5303F0E4C4CBC4540F6BCB00
:200A4300540FCB6BCB30E30244F0EB244CF987038C828D83EBF074062EFCE43FFD90E50BCB
:200A6300E0FB53030FEB244CF987038C828D83EBF074042EFCE43FFD90E50CE0FB5303F0F8
:200A8300E4C4CBC4540F6BCB540FCB6BCB30E30244F0EB244CF987038C828D83EBF0740289
:1A0AA3002EFEE43FFF90E50CE0FD53050FED244CF987058E828F83EDF02223
:201432008A0F0E0000000000000200010000000000505555000000000000000000000000F6
:20145200008A010100000000000002000100000000005055550000000000000000000000F1
:2014720000008AFAFAFAFAFAF90000020000000000010050555555555555000000000000A4
:201492000000008AC8C8C70000000000020000010000000050555555000000000000000007
:2014B200000000008AFAF900000000000002000100000000005055550000000000000000A0
:2014D20000000000008A969500000000000002000100000000005055550000000000000048
:2014F200000000000000CA0201000000000000020001000000000050555500000000000010
:20151200000000000000008A4B4A000000000000020001000000000050555500000000009D
:2015320000000000000000008A010000000000000002010000000000005055000000000066
:201552000000000000000000008A1E1D0000000000000200010000000000505555000000B7
:2015720000000000000000000000CA01010000000000000200010000000000505555000090
:2015920000000000000000000000008A0707000000000000020001000000000050555500A4
:2015B200000000000000000000000000CA01000000000000000201000000000000505500A6
:2015D200000000000000000000000000008A050400000000000002000100000000005055BE
:2015F2005500000000000000000000000000AA800000000000000003000000000000000057
:20161200000000000000000000000000000000CA06050000000000000200010000000000E0
:2016320050555500000000000000000000000000EA80000000000000000300000000000031
:2016520000000000000000000000000000000000008A0302000000000000020001000000E6
:201672000000505555000000000000000000000000008A02020000000000000200010000CD
:2016920000000050555500000000000000000000000000CA0302000000000000020001006C
:2016B2000000000050555500000000000000000000000000304316801E01168018BF1580F4
:2016D200107D15800F3B15800CF914800A54148008A616800685168005641680042216804C
:2016F20003E01580029E158001331480965C1580781A15806ED814806AB714806996148093
:041712006675148064
:203D000012010002FFFFFF40B50422600502010203010A0600020000004001000902890021
:203D200001010080FA0904000001FF000000070586020002000904000101FF000100070549
:203D400082010014010904000201FF00010007058201000C010904000301FF000100070502
:203D600082010004010904000401FF000100070582010004020904000501FF0001000705F5
:203D800082010004030904000601FF000100070582010004040904000701FF0001000705CD
:053DA000820100020495
:203DA6000902390002010080FA0904000001FF000000070586024000000904000101FF004D
:193DC600010007058201FF03010904000201FF00010007058201000201AF
:203DE0000403090416034F00700065006E00480061006E00740065006B00160344005300F9
:203E00004F002D003600300032003200420045001A03300030003000300030003000300068
:0C3E2000300030003000300030000000A6
:200ABD0085822CE5272522FDE5283523FE752D02903C00E4F0903C00E06004758200229036
:200ADD00E678E0FB7A0043038090E678EBF0E030E21090000AC006C005121376D005D0064A
:200AFD0080D3E52C25E0FB90E679F090E678E020E006903C00E060F3903C00E060047582BC
:200B1D00002290E678E020E2AC90E678E020E14090E678E0FB43034090E678EBF090E67805
:200B3D00E030E606903C00E060F3903C00E0600475820022E52D14FB8B2D7003F5822290FF
:200B5D00000AC006C005121376D005D006020AD27A007B00C3EA9DEB9E4003020C07C3EAF2
:200B7D009522EB95235016EA2524F8EB3525F9AC26888289838CF01213CDFC801DEAC395FE
:200B9D0022F8EB9523F9E82529F8E9352AF9AF2B888289838FF01213CDFC90E679ECF00AE1
:200BBD00BA00010B90E678E020E006903C00E060F3903C00E060047582002290E678E03058
:200BDD00E203020AD290E678E020E18890E678E0FF43074090E678EFF090E678E030E606D0
:200BFD00903C00E060F37582002290E678E0FF43074090E678EFF090E678E030E606903CE6
:200C1D0000E060F3903C00E060047582002275820122858233903C00E4F004B52E0814B5AF
:200C3D002F0474018001E4FE903C00E06004758200227C007D0090E678E0FB43038090E665
:200C5D0078EBF0E030E20C90000AC006121376D00680D5E53325E0FB3395E0FA430301906F
:200C7D00E679EBF090E678E020E006903C00E060F3903C00E060047582002290E678E02033
:200C9D00E2A690E678E020E11E90E678E0FB43034090E678EBF090E678E030E606903C00F4
:200CBD00E060F375820022EE600F90E678E0FB7A0043032090E678EBF090E679E0E4F53420
:200CDD00F53574012534F8E43535F9C3E8952EE9952F506C90E678E020E006903C00E06009
:200CFD00F3903C00E060047582002290E678E030E203020C4574022534F8E43535F9E8B5DA
:200D1D002E13E9B52F0F90E678E0F8790043002090E678E8F0A834A9350534E4B53402056A
:200D3D0035AC34AD35E82530F8E93531F9AF3290E679E0FB888289838FF012131B020CDFB5
:200D5D0090E678E020E006903C00E060F3903C00E060047582002290E678E030E203020C89
:200D7D004590E678E0FF43074090E678EFF0EC2530FCED3531FDAF3290E679E08C828D8392
:200D9D008FF012131B90E678E030E606903C00E060F3903C00E0600475820022758201224B
:200DBD0085823DE4F541F542AB36AC37C3E5419538E54295394003020E4E7A0090E678E029
:200DDD0030E4067A018C078F3EEA04FFEA243EF98B02A702EF04FAEF243EF9AE41AF42057D
:200DFD0041E4B541020542EE253AFEEF353BFFAD3C8E828F838DF01213CDF78A2275230014
:200E1D0075243E752500752640E4F527F528F529F52AF52B853D82C004C003120ABDE582E4
:200E3D00D003D0047003F582220BBB00010C020DC975820122AF827E0090E678E030E40686
:200E5D007E01AD448D4AEE04FDEE244AF9AE43A7068D2275230075244A752500752640E4C9
:200E7D00F527F528F529F52AF52B8F82C007120ABDE582D0077003F5822285452E85462FD2
:190E9D008547308548318549328F82120C2FE5827003F582227582012257
:06008800E478FFF6D8FD4C
:1200CE007512007513007514A675153D75161C75173DAB
:200EB60090E6B9E0FF24F45003020FE4EF240A83F582EF241083F583E473E804E420E4E46A
:200ED6003CE44C6385BF0E0F0F0F0F0F0F0F0F0F0F0F121066E582600302100090E6A0E0DC
:200EF600FF7E0043070190E6A0EFF00210001210FAE582600302100090E6A0E0FF7E00435F
:200F1600070190E6A0EFF0021000121175E582600302100090E6A0E0FF7E0043070190E604
:200F3600A0EFF00210001206C0E58260030210001212360210001205AFAF8290E740EFF05D
:200F560090E68AE4F090E68B04F002100090E6BAE0F5821205B3E582600302100090E6A05D
:200F7600E0FF7E0043070190E6A0EFF002100090E6BCE0FF754C11754D00754E408F8212E1
:200F9600058CE582701190E6A0E0FF7E0043070190E6A0EFF0805390E740E511F090E68A9F
:200FB600E4F090E68B04F0804190E6BCE0FF90E6BAE0F5108F821205A1E582702D90E6A088
:200FD600E0FF7E0043070190E6A0EFF0801C90E6B9E0F5821206C4E582700F90E6A0E0FF85
:200FF6007E0043070190E6A0EFF090E6A0E0FF43078090E6A0EFF022AF82747F5FFE24F7AB
:201016005003021062EE240A83F582EE240D83F583E4733B3F526256625A625E101010102C
:20103600101010101090E6A022EF30E7067EA27FE680047EA17FE68E828F832290E6A322FA
:2010560090E6A42290E6A52290E6A6229000002290E6B8E0FFBF80028022BF81028008BF98
:20107600820280370210F290E740E4F090E741F090E68AF090E68B7402F08064E51325E0B0
:20109600FFE512420790E740EFF090E741E4F090E68AF090E68B7402F0804590E6BCE0F5B6
:2010B6008212100EAE82AF838E048F05EE4F7003F582228C828D83E0FC30E0067E017F0089
:2010D60080047E007F0090E740EEF090E741E4F090E68AF090E68B7402F080047582002264
:2010F6007582012290E6B8E0FF6005BF0264801B90E6BAE0FFBF0105751300805E90E6BA24
:20111600E0FFBF060280547582002290E6BAE0703D90E6BCE0F58212100EAE82AF83E0FD71
:201136005305FE8E828F83EDF090E6BCE0FF30E7098F057E004305108D0753071F90E683A3
:20115600EFF07E0043072090E683EFF0800D7582002290E6B9E0F5820206C4758201229038
:20117600E6B8E0FF6008BF020280290211FE90E6BAE0FFBF020302120790E6BAE0FFBF013A
:2011960005751301806B90E6BAE0FFBF060280617582002290E6BAE0704A90E6BCE0F5829D
:2011B60012100EAE82AF83EE4F7003F582228E828F83E0FD7C004305018E828F83EDF090EB
:2011D600E6BCE0FF30E7098F057E004305108D0753071F90E683EFF07E0043072090E68328
:2011F600EFF0800D7582002290E6B9E0F5820206C475820122AF827E0110AF027E00EF60AA
:201216000E75141C75153D7516A675173D800C7514A675153D75161C75173DEE1392AF22EE
:2012360090E6BBE0FFBF01028019BF02028024BF0302802CBF06030212F0BF0703021300AC
:2012560002130D7E007F3D90E6B3EFF090E6B47400F02290E6B3E515F090E6B4E514F0221C
:201276007DE07E3D7F8090E6BAE0F54C7B008B020BEAB54C0280428D008E018F028D828EE4
:20129600838FF01213CD28F8E439F9880589068A0774012DF9E43EFA8F0489828A838CF083
:2012B6001213CDF9B9030280067D007E007F00ED4E6006C3E54C9B50B5ED4E600F8D038E72
:2012D6000490E6B3ECF090E6B4EDF02290E6A0E0FF43070190E6A0EFF0227E127F3D90E6AD
:2012F600B3EFF090E6B47412F02290E6B3E517F090E6B4E516F02290E6A0E0FF4307019068
:05131600E6A0EFF0224B
:200066007900E94400601B7A00901716780175923CE493F2A308B800020592D9F4DAF275F3
:0200860092FFE7
:1B131B0020F71130F6138883A88220F509F6A8837583002280FEF280F5F022D1
:203F00000201350002143000021425000201E30002014D00020198000214220002136A0060
:203F200002136C0002136D0002136E000213710002142F0002143100021336000213380051
:203F40000214270002136A000213E90002142300021424000214260002142800021429007B
:203F60000213CC0002136A0002136A0002136A0002136B0002136F000213720002137400CF
:203F80000213700002137300021375000213CB0002133900021364000213660002136800EB
:183FA00002133A000213650002136700021369000213370002142E00B6
:011336003284
:011337003283
:011338003282
:011339003281
:01133A003280
:20008E007800E84400600A790075923CE4F309D8FC7801E84400600C7901903C00E4F0A306
:0400AE00D8FCD9FAA7
:20133B007A10E4FBFCE58225E0F582E58333F583EB33FBEC33FCEB954CF5F0EC954D40063E
:09135B00FCABF0438201DADD2253
:011364003256
:011365003255
:011366003254
:011367003253
:011368003252
:011369003251
:01136A003250
:01136B00324F
:01136C00324E
:01136D00324D
:01136E00324C
:01136F00324B
:01137000324A
:011371003249
:011372003248
:011373003247
:011374003246
:011375003245
:20137600AE82AF8390E600E05418C423541F70057CB1FD801C90E600E05418C423541FFB87
:20139600BB01067A617B0180047AC27B028A048B058C4C8D4D154C74FFB54C02154DE54CA7
:1513B600454D70F1EE24FFFAEF34FFFB8A068B07EA4B70DD2241
:0113CB0032EF
:0113CC0032EE
:0D00590075815B12142AE5826003020056D7
:1C13CD0020F71430F6148883A88220F507E6A88375830022E280F7E49322E0222F
:0113E90032D1
:2013EA00C2D5E58330E70DD2D5E4C39582F582E49583F583E54D30E70DB2D5E4C3954CF516
:18140A004CE4954DF54D12133B30D50BE4C39582F582E49583F583223B
:011422003297
:011423003296
:011424003295
:011425003294
:011426003293
:011427003292
:011428003291
:011429003290
:04142A0075820022A5
:01142E00328B
:01142F00328A
:011430003289
:011431003288
:00000001FF
