:040000000201B9320E
:01000B0032C2
:0100130032BA
:01001B0032B2
:0100230032AA
:03002B00020410BC
:030033000203477E
:01003B003292
:01004300328A
:01004B003282
:01005300327A
:01005B003272
:01006300326A
:03006B0002034A43
:03007300020C5527
:03007B0002082553
:030083000203F87D
:03008B000203620B
:030093000203ADB8
:03009B0002082236
:0300A300020C8DBF
:0300AB00020C8EB6
:0300B300020C8FAD
:0300BB00020C92A2
:0300C300020C39F3
:0300CB00020C56CE
:0300D300020C57C5
:0300DB00020C59BB
:0300E300020827E9
:0300EB00020D43C0
:0300F300020823DD
:0300FB00020824D4
:03010300020826C9
:03010B00020828BF
:03011300020829B6
:03011B00020CEEE5
:03012300020C8B40
:03012B00020C9033
:03013300020C9328
:03013B00020C951E
:03014300020C8C1F
:03014B00020C9112
:03015300020C9407
:03015B00020C96FD
:03016300020CED9E
:03016B00020C5A29
:03017300020C85F6
:03017B00020C87EC
:03018300020C89E2
:03018B00020C84DF
:03019300020C86D5
:03019B00020C88CB
:0301A300020C8AC1
:0301AB00020C58EB
:0301B300020C3803
:09021200E4F508F509C200C2017F
:030230000201B612
:0301B6000202330F
:2002330090E600E053E0E7F01207DEE500D2E890E668E0FF43070890E668EFF090E65CE037
:20025300FF43070190E65CEFF0E0FF43071090E65CEFF0E0FF43072090E65CEFF0E0FF7E4F
:200273000043070890E65CEFF0D2DDD2AF75CA0C75CBFE75C800D2ADD2CA90E680E020E180
:200293001690E680E043E00AF09005DC120C9790E680E053E0F7F090E671E4F090E670F09B
:2002B30075B4FF75B280120821100002800312082A10010280F090E682E043E0C0F090E6A4
:2002D300817401F0AE877F004306018E8700000000000000E511701C90E682E030E607900B
:2002F300E682E020E0D090E682E030E70790E682E020E1C290E682E030E60790E682E02055
:20031300E00E90E682E030E79D90E682E030E196900005120C9790E680E0FF43070190E6F1
:2003330080EFF090000F120C9790E680E053E0FEF00202B9C2DC32C0E0C082C083D2005329
:2003530091EF90E65D7401F0D083D082D0E032C021C0E0C0F0C082C083C007C006C005C083
:2003730004C003C002C001C000C0D075D000758200120B245391EF90E65D7410F0D0D0D0C9
:2003930000D001D002D003D004D005D006D007D083D082D0F0D0E0D02132C021C0E0C0F015
:2003B300C082C083C007C006C005C004C003C002C001C000C0D075D000758201120B245328
:2003D30091EF90E65D7420F0D0D0D000D001D002D003D004D005D006D007D083D082D0F092
:2003F300D0E0D02132C0E0C082C083D2015391EF90E65D7408F0D083D082D0E032C0E0C026
:20041300D0B287E50845096013150874FFB508021509E50845097004D2A0D2A1C2CFD0D0E0
:03043300D0E032E4
:03021B00750A0061
:20043600AF827401B5160280157402B5160280127405B51602800F740AB51612800C7E4847
:2004560080107E24800C7E0080087E6C800475820022EF60067DE07F0080047D1C7F00ED81
:20047600F4FFE5A05207ED5E4FF5A075820122850D16751700905DC0120D0BAE82AF83C31C
:20049600E50B9EE50C9F400990E640E053E07FF02290E640E0FF43078090E640EFF022AFC0
:2004B60082BF01028003BF02188F0674072EFE90E618F090E61AEEF08F0D1204857582012F
:2004D6002275820022AF0D74072FFF90E6F574FFF0000000E5BB30E7FB90E6047480F00088
:2004F600000090E618E4F000000090E61AE4F000000090E6047402F000000090E60474064C
:20051600F000000090E618EFF000000090E61AEFF000000090E604E4F02290E6F574FFF0BB
:20053600000000E50A700790E6487406F02290E6487402F0221204DB00000090E6D07428DC
:20055600F000000090E6D1E4F0E50A700575BB06800375BB04E4F508F509D2A0C2A122AFA4
:200576008290E680E030E7067D1C7E3D80047DA67E3D8F03E4CBC4CB6BCB54F0CB6BFC744A
:20059600162BFBE43CFCEB2DFDEC3EFC7E80EFF50A703590E612E4F090E61474E0F090E681
:2005B600E27401F08D828C838EF0120CEF90E625F074012DFAE43CFB8E078A828B838FF0C5
:2005D600120CEF90E624F02290E61274D8F090E614E4F090E6D204F08D828C838EF0120C34
:2005F600EF90E621F00DBD00010C8D828C838EF0120CEFFF90E62074075FF08D828C838EE4
:20061600F0120CEFC423541F90E64004F0020485AF827E00EE75F009A4FCADF02448F5820D
:20063600ED340DF583E493FBB5070280080EBE0CE375820022EC2448FCED340DFD8C828D58
:2006560083A3E493F50BA3E493F50CC005C004120485D004D00574082CF582E43DF583E463
:200676009390E601F075AF07759DE4759E008C828D83A3A3A3E49390E67CF08C828D83A315
:20069600A3A3A3E49390E67CF07401F0E4F0F0F0F0F08C828D83A3A3A3A3A39390E67CF047
:2006B60074062CF582E43DF583E49390E67CF07401F0E4F0F0F0F0F074072CF582E43DF5E8
:2006D60083E49390E67CF07444F0F0E4F0F0F0F0F0F0F0F0F0F0F0F0F07F0090E67CE4F037
:2006F6000FBF600040F57582012275820022AD16AE17AF188D828E838FF0E50A120C3A75A4
:20071600820122E5827006850E82120575758201227582002275820122AF82C00712053014
:20073600D007C2A0D2A17508E8750903BFE0028017BFE1028012BFE2028030BFE3028048E6
:20075600BFE40280620207DA90E68AE4F090E68BF090E6A0E020E1F9EF2420FF90E740E09B
:20077600F5168F821204367582012290E68AE4F090E68BF090E6A0E020E1F990E740E0F5A0
:20079600821206267582012290E68AE4F090E68BF090E6A0E020E1F990E740E0FFBF01035B
:2007B60012054B7582012290E68AE4F090E68BF090E6A0E020E1F990E740E0F5821204B519
:2007D600758201227582002290E613E4F090E615F090E6C2F090E6C37480F090E6C0E4F0A9
:2007F60090E6F4F012053075160175820012043675160175820112043675820112062675F8
:0C08160082021204B575820002057522F2
:200D48003080BB8000030000EA1E30758000030000AA18C05D0100020140CA10803E0101B0
:200D6800020040CA0CE02E0201020040CA08401F0302020040CA04A00F0605020040CA02F2
:200D8800D0070C0B020040CA01E8031817020040CA32F401302F020040CA14C800787702CB
:0C0DA8000040CA0A6400F0EF020040CADC
:203D000012010002FFFFFF40B50422600000010200010A060002000000400100090289002B
:203D200001010080FA0904000001FF000000070586020002000904000101FF000100070549
:203D400082010014010904000201FF00010007058201000C010904000301FF000100070502
:203D600082010004010904000401FF000100070582010004020904000501FF0001000705F5
:203D800082010004030904000601FF000100070582010004040904000701FF0001000705CD
:053DA000820100020495
:203DA6000902390002010080FA0904000001FF000000070586024000000904000101FF004D
:193DC600010007058201FF03010904000201FF00010007058201000201AF
:203DE0000403090408034F0044004D002003480061006E00740065006B00440053004F0060
:0E3E0000360030003200320042004500000063
:0108220032A3
:0108230032A2
:0108240032A1
:0108250032A0
:01082600329F
:01082700329E
:01082800329D
:01082900329C
:0601E800E478FFF6D8FDEB
:12021E007510007511007512A675133D75141C75153D65
:20082A0090E6B9E0FF24F45003020930EF240A83F582EF241083F583E4735C723088303088
:20084A009E30AEC5DD110808090809090809080808091209AAE582600302094690E6A0E024
:20086A00FF74014FF0020946120A37E582600302094690E6A0E0FF74014FF0020946120AE6
:20088A00A3E582600302094690E6A0E0FF74014FF0020946120700E5826003020946120B45
:2008AA004F020946120727AF8290E740EFF090E68AE4F090E68B04F002094690E6BAE0F568
:2008CA008212072BE582707490E6A0E0FF74014FF0806990E6BCE0FF75160F7517007518A7
:2008EA00408F82120704E582700B90E6A0E0FF74014FF0804790E740E50FF090E68AE4F0BF
:20090A0090E68B04F0803590E6BCE0FF90E6BAE0F50E8F82120719E582702190E6A0E0FFCF
:20092A0074014FF0801690E6B9E0F58212072FE582700990E6A0E0FF74014FF090E6A0E016
:20094A00FF74804FF022AF828F0653067FEE24F750030209A6EE240A83F582EE240D83F5E1
:20096A0083E4737F8396A69AA69EA6A209090909090909090990E6A022EF30E7067EA27FFB
:20098A00E680047EA17FE68E828F832290E6A32290E6A42290E6A52290E6A6229000002277
:2009AA0090E6B8E0FFBF8002801FBF81028005BF8273803490E740E4F090E741F090E68ADE
:2009CA00F090E68B7402F08060E51125E0FFE510420790E740EFF090E741E4F090E68AF08C
:2009EA0090E68B7402F0804190E6BCE0F582120950AE82AF838E048F05EE4F7003F5822200
:200A0A008C828D83E0FC30E0047F0180027F0090E740EFF090E741E4F090E68AF090E68B2A
:200A2A007402F08004758200227582012290E6B8E0FF6005BF0255801190E6BAE0FFBF01A7
:200A4A0005751100804F7582002290E6BAE0703890E6BCE0F582120950AE82AF83E0FD53DB
:200A6A0005FE8E828F83EDF090E6BCE0FF53070F90E6BCE05480C423541FFE90E6832FF09A
:200A8A00E0FF74204FF0800D7582002290E6B9E0F58202072F7582012290E6B8E0FF6005AA
:200AAA00BF026A801B90E6BAE0FFBF0202806790E6BAE0FFBF0105751101805A758200225F
:200ACA0090E6BAE0704390E6BCE0F582120950AE82AF83EE4F7003F582228E828F83E0FDAB
:200AEA004305018E828F83EDF090E6BCE0FF53070F90E6BCE05480C423541FFE90E6832FC4
:200B0A00F0E0FF74204FF0800D7582002290E6B9E0F58202072F75820122AF82D20210AFE7
:200B2A0002C202EF600E75121C75133D7514A675153D800C7512A675133D75141C75153D40
:200B4A00A20292AF2290E6BBE0FFBF01028019BF02028029BF03028033BF0603020C0ABF97
:200B6A000703020C1F020C2E7E007F3D8F0690E6B3EEF07E007F3D90E6B4EEF022AF13906C
:200B8A00E6B3EFF0AE1290E6B4EEF0227DE07E3D7F8090E6BAE0F5167B008B020BEAB516EF
:200BAA000280428D008E018F028D828E838FF0120CEF28F8E439F9880589068A0774012D89
:200BCA00F9E43EFA8F0489828A838CF0120CEFF9B9030280067D007E007F00ED4E6006C3A7
:200BEA00E5169B50B5ED4E600D8E0790E6B3EFF090E6B4EDF02290E6A0E0FF74014FF02217
:200C0A007E127F3D8F0690E6B3EEF07E127F3D90E6B4EEF022AF1590E6B3EFF0AE1490E668
:0E0C2A00B4EEF02290E6A0E0FF74014FF0223D
:2001C6007900E94400601B7A00900DB4780075923CE493F2A308B800020592D9F4DAF275FF
:0201E60092FF86
:010C38003289
:010C39003288
:1B0C3A0020F71130F6138883A88220F509F6A8837583002280FEF280F5F022B9
:010C5500326C
:010C5600326B
:010C5700326A
:010C58003269
:010C59003268
:03004300023F0079
:203F000002034A00020C5500020825000203F800020362000203AD0002082200020C8C00E4
:203F2000020C8D00020C8E00020C8F00020C9200020C3900020C5600020C5700020C590096
:203F400002082700020C8C00020D4300020823000208240002082600020828000208290054
:203F6000020CEE00020C8C00020C8C00020C8C00020C8B00020C9000020C9300020C9500FC
:203F8000020C9100020C9400020C9600020CED00020C5A00020C8500020C8700020C89001A
:183FA000020C8400020C8600020C8800020C8A00020C5800020C380009
:010C5A003267
:200C5B007A10E4FBFCE58225E0F582E58333F583EB33FBEC33FCEB9516F5F0EC9517400691
:090C7B00FCABF0438201DADD223A
:010C8400323D
:2001EE007800E84400600A790075923CE4F309D8FC7800E84400600C7900903C00E4F0A3A7
:04020E00D8FCD9FA45
:010C8500323C
:010C8600323B
:010C8700323A
:010C88003239
:010C89003238
:010C8A003237
:010C8B003236
:010C8C003235
:010C8D003234
:010C8E003233
:010C8F003232
:010C90003231
:010C91003230
:010C9200322F
:010C9300322E
:010C9400322D
:010C9500322C
:010C9600322B
:200C9700AE82AF8390E600E05418C423541FFD70057CB1FD801C90E600E05418C423541F6B
:200CB700FBBB01067A617B0180047AC27B028A048B058C168D17151674FFB516021517E5EC
:160CD70016451770F1EE24FFFAEF34FFFB8A068B07EA4B70DD2246
:010CED0032D4
:010CEE0032D3
:0D01B900758121120D44E58260030201B63C
:1C0CEF0020F71430F6148883A88220F507E6A88375830022E280F7E49322E02214
:200D0B00C2D5E58330E70DD2D5E4C39582F582E49583F583E51730E70DB2D5E4C39516F567
:180D2B0016E49517F517120C5B30D50BE4C39582F582E49583F58322AA
:010D4300327D
:040D44007582002292
:00000001FF
