:04000000020059326F
:01000B0032C2
:0100130032BA
:01001B0032B2
:0100230032AA
:03002B000202834B
:0300330002019433
:01003B003292
:03004300023F0079
:01004B003282
:03005300023F0069
:1F00B200750800750A00750B00750C02750D00750EF4750F017510F4751101C200C2012D
:0300E300020056C2
:030056000208425B
:2000E600AF827E00C286EF235401FD24FF9284D286EF2FFF0EBE080040EAD285C28522AF84
:20010600827401B5090280237402B5090280207405B50902801D740AB50902801A740BB5C7
:2001260009028017740CB5091A80147E0980187E0680147E0080107E56800C7E5080087EB2
:200146005F800475820022EF60047F1C80027F43EFF4FDE5085205EF5E4DF508850882128F
:2001660000E675820122E582FF30E009AE08747F5EF5088003430880EF30E409AF0874DF92
:200186005FF50880034308208508820200E6C2DC32C0E0C082C083C007C0D075D000D200B5
:2001A600AF9174EF5FF59190E65D7401F0D0D0D007D083D082D0E032C021C0E0C0F0C08208
:2001C600C083C007C006C005C004C003C002C001C000C0D075D0007582001211B4AF917463
:2001E600EF5FF59190E65D7410F0D0D0D000D001D002D003D004D005D006D007D083D082FD
:20020600D0F0D0E0D02132C021C0E0C0F0C082C083C007C006C005C004C003C002C001C073
:2002260000C0D075D0007582011211B4AF9174EF5FF59190E65D7420F0D0D0D000D001D024
:2002460002D003D004D005D006D007D083D082D0F0D0E0D02132C0E0C082C083C007C0D0B9
:2002660075D000D201AF9174EF5FF59190E65D7408F0D0D0D007D083D082D0E032C0E0C03B
:20028600D0B287E51045116016151074FFB510021511E51045117007850E10850F1100C23D
:2002A600CFD0D0D0E032E582FF30E00543B1088007AEB174F75EF5B1EF30E40443B10122FD
:2002C600AFB174FE5FF5B122850C4C754D00905DC0121398AE82AF83AC0B7D00C3EC9EED46
:2002E60064808FF063F08095F0400A90E640E0FF747F5FF02290E640E0FF74804FF022858B
:20030600820C7401B50C0280057402B50C177407250CF50D90E618F090E61AE50DF012028C
:20032600CE758201227582002290E6F574FFF000000000E5BB60FC90E6047480F00000008E
:200346000090E618E4F00000000090E61AE4F00000000090E6047402F00000000090E60477
:200366007406F00000000090E618E50DF00000000090E61AE50DF00000000090E604E4F0DD
:200386002290E6F574FFF000000000E50A70047F0680027F0290E648EFF022D28712032F20
:2003A6007EE87F03EE24FFFCEF34FFFD8C068D07EC4D70F0E5BB30E7FB0000000090E6D06C
:2003C6007428F00000000090E6D1E4F0E50A70047F0680027F048FBB22AF8290E680E0FE12
:2003E60030E7067D1C7E3D80047DA67E3DEF75F010A42416FBE435F0FCEB2DFDEC3EFC7E29
:2004060080EFF50A703590E612E4F090E61474E0F090E6E27401F08D828C838EF012137BA0
:2004260090E625F074012DFAE43CFB8E078A828B838FF012137B90E624F02290E61274D826
:20044600F090E614E4F090E6D204F08D828C838EF012137BFF90E621F00DBD00010C8D8264
:200466008C838EF012137BFF90E62074075FF08D828C838EF012137BC423541F90E640049A
:20048600F00202CEAF827E00EE75F005A4FCADF02460F582ED3416F583E493FBB5070280F6
:2004A600080EBE14E375820022EC2460FCED3416FD8C828D83A3A3A3A3E49390E601F08C9E
:2004C600828D83A3E493FDA3E493FEA3E493FF75AF07759DE4759E007C208C031CEB601660
:2004E6008D828E838FF012137BFBA3AD82AE8390E67CEBF080E47F608F061FEE600790E62A
:200506007CE4F080F375820122AF82BF00028064BF01030205A6BF02030205B4BF0503026A
:2005260005C2BF0A030205D0BF14030205DEBF32030205ECBF64030205FABF69028017BF02
:200546006A028021BF6E02802BBF78028035BF9602803F020608750E19750F0075CAC07506
:20056600CB6302060C750E1E750F0075CACB75CB7D02060C750E32750F0075CAE075CBB1EA
:2005860002060C750E64750F0075CAF075CBD802060C750EFA750F0075CA6075CBF08066C5
:2005A600750EF4750F0175CA3075CBF88058750EE8750F0375CA1875CBFC804A750EC475AF
:2005C6000F0975CA7075CBFE803C750E88750F1375CA3875CBFF802E750E10750F2775CAD1
:2005E6009C75CBFF8020750EA8750F6175CAD875CBFF8012750E50750FC375CAEC75CBFFFE
:2006060080047582002275820122AD4CAE4DAF4E8D828E838FF0E50A1212C875820122E5B3
:2006260082FF70068512821203DF75820122758200227582012290E6BBE0FE7F0090E6BAA5
:20064600E07C004207EC420690E6BFE0FC7D0090E6BEE0FB7A004205EA420490E6A0E0FB3C
:2006660020E1F890E6B8E0FBBB40028074BBC0028003020741ED4C7003020745C374409D29
:20068600E49C50067A407B0080048D028C0390E6A0E0FB20E1F88A4575460075474075487A
:2006A600E77549008F438E44758251C007C006C005C004C002120E4ED002D004D005D0060C
:2006C600D00790E68AE4F00000000090E68BEAF07B00EDC39AFDEC9BFCEA2FFFEB3EFE808A
:2006E60094ED4C605A90E68BE4F090E6A0E0FB20E1F890E68BE0FB8B38753900753A4075FD
:200706003BE7753C008F368E37758251C007C006C005C004C003120DB8E582D003D004D0A0
:2007260005D006D0077003F582227A00EB2FFFEA3EFEEDC39BFDEC9AFC80A67582002275BE
:2007460082012275820022AF82C007120387D00700850E10850F11BFE0004016EF241940C1
:200766001190E68AE4F090E68BF090E6A0E0FE20E1F8BFA2028023BFE0028021BFE1028046
:2007860028BFE202802FBFE3028033BFE4028043BFE5028047BFE65A804F02063C90E740E4
:2007A600E0F50975820002010590E740E0F50975820102010590E740E0F58202048A90E7AC
:2007C60040E0FFBF010900E4F510F5111203A17582012290E740E0F58202030590E740E0BD
:2007E600F58212016C7582012290E740E0F58202050F7582002290E613E4F090E615F0D2FC
:200806008790E6C2E4F090E6C37480F090E6C0E4F090E6F4F0120387750901758200120199
:200826000575090175820112010575820112048A7582021203057582000203DF90E600E042
:20084600FF74E75F4410F012094B1207FCD2E890E668E0FF74084FF090E65CE0FF74014F73
:20086600F0E0FF74104FF0E0FF74204FF0E0FF74084FF0D2DDD2AF75CA3075CBF875C80080
:20088600D2ADD2CA90E680E0FF740A4FF09005DC12132390E680E0FF74F75FF090E672E491
:2008A600F090E671F090E670F075B109F5A0F58075B6FF75B4FF75B2FF001000028003123D
:2008C6000EB310010280F390E682E0FF74C04FF090E6817401F0438701000000000000005A
:2008E600E515702090E682E0FF30E60890E682E0FF20E0D390E682E0FF30E70890E682E0FB
:20090600FF20E1C390E682E0FF30E60890E682E0FF20E01090E682E0FF30E79E90E682E0CE
:20092600FF30E19690000512132390E680E0FF74014FF090000F12132390E680E0FF74FE77
:200946005FF00208C07E107F3E754C30754D31754E32754F337550347551357552367553A4
:2009660037755438755539755641755742755843755944755A45755B4674182EFCE43FFDFA
:2009860090E507E054F0C4540F244CF987038C828D83EBF074162EFCE43FFD90E507E0FB73
:2009A600740F5B244CF987038C828D83EBF074142EFCE43FFD90E508E054F0C4540F244C5D
:2009C600F987038C828D83EBF074122EFCE43FFD90E508E0FB740F5B244CF987038C828D01
:2009E60083EBF074102EFCE43FFD90E509E054F0C4540F244CF987038C828D83EBF0740E8E
:200A06002EFCE43FFD90E509E0FB740F5B244CF987038C828D83EBF0740C2EFCE43FFD9009
:200A2600E50AE054F0C4540F244CF987038C828D83EBF0740A2EFCE43FFD90E50AE0FB74F4
:200A46000F5B244CF987038C828D83EBF074082EFCE43FFD90E50BE054F0C4540F244CF940
:200A660087038C828D83EBF074062EFCE43FFD90E50BE0FB740F5B244CF987038C828D83DF
:200A8600EBF074042EFCE43FFD90E50CE054F0C4540F244CF987038C828D83EBF074022E57
:180AA600FEE43FFF90E50CE0FD740F5D244CF987058E828F83EDF022C4
:2013E0000F0E000000000000020001000000000050555500000000000000000000000000D3
:201400000101000000000000020001000000000050555500000000000000000000000000CD
:20142000FAFAFAFAFAF9000002000000000001005055555555555500000000000000000080
:20144000C8C8C70000000000020000010000000050555555000000000000000000000000E3
:20146000FAFAF900000000000200000100000000505555550000000000000000000000002D
:20148000969500000000000002000100000000005055550000000000000000000000000024
:2014A00002010000000000000200010000000000505555000000000000000000000000002C
:2014C0004B4A0000000000000200010000000000505555000000000000000000000000007A
:2014E000010000000000000002010000000000005055000000000000000000000000000043
:201500001E1D00000000000002000100000000005055550000000000000000000000000093
:201520000101000000000000020001000000000050555500000000000000000000000000AC
:20154000070700000000000002000100000000005055550000000000000000000000000080
:201560000100000000000000020100000000000050550000000000000000000000000000C2
:20158000050400000000000002000100000000005055550000000000000000000000000045
:2015A0008000000000000000030000000000000000000000000000000000000000000000A8
:2015C000060500000000000002000100000000005055550000000000000000000000000003
:2015E000800000000000000003000000000000000000000000000000000000000000000068
:201600000302000000000000020001000000000050555500000000000000000000000000C8
:201620000202000000000000020001000000000050555500000000000000000000000000A9
:20164000030200000000000002000100000000005055550000000000000000000000000088
:2016600030E01580EA1EA01580AA18601580CA10201580CA0FE014808A0CA01480CA0A0057
:2016800014808A08401680CA062016808A050016808A04C01580CA038015808A024015807D
:2016A0008A01E013808A960015808A78C014808A6E8014808A6A601480CA694014808A6636
:0416C0002014808AE8
:203D000012010002FFFFFF40B50422600602010203010A0600020000004001000902890020
:203D200001010080FA0904000001FF000000070586020002000904000101FF000100070549
:203D400082010014010904000201FF00010007058201000C010904000301FF000100070502
:203D600082010004010904000401FF000100070582010004020904000501FF0001000705F5
:203D800082010004030904000601FF000100070582010004040904000701FF0001000705CD
:053DA000820100020495
:203DA6000902390002010080FA0904000001FF000000070586024000000904000101FF004D
:193DC600010007058201FF03010904000201FF00010007058201000201AF
:203DE0000403090416034F00700065006E00480061006E00740065006B00160344005300F9
:203E00004F002D003600300032003200420045001A03300030003000300030003000300068
:0C3E2000300030003000300030000000A6
:200ABE00AF82E5272522F52CE5283523F52D752E02903C00E4F0EF2FFF903C00E0E060049A
:200ADE007582002290E678E0FB74804BF0E0FB30E20C90000AC007121323D00780DB90E69D
:200AFE0079EFF090E678E0FB20E007903C00E0E060F1903C00E0E060047582002290E678DC
:200B1E00E0FB20E2B490E678E0FB20E13B90E678E0FB74404BF090E678E0FB30E607903CB7
:200B3E0000E0E060F1903C00E0E0600475820022E52E14FB8B2E7003F5822290000AC00735
:200B5E00121323D007020AD77A007B00C3EA952CEB952D4003020C08C3EA9522EB952350B5
:200B7E0016EA2524F8EB3525F9AC26888289838CF012137BFC801DEAC39522F8EB9523F943
:200B9E00E82529F8E9352AF9AE2B888289838EF012137BFC90E679ECF00ABA00010B90E6AE
:200BBE0078E0FE20E007903C00E0E060F1903C00E0E060047582002290E678E0FE30E203F3
:200BDE00020AD790E678E0FE30E103020B6A90E678E0FF74404FF090E678E0FF30E6079083
:200BFE003C00E0E060F17582002290E678E0FF74404FF090E678E0FF30E607903C00E0E03B
:200C1E0060F1903C00E0E060047582002275820122AF82903C00E4F0EF2FFF430701740194
:200C3E00B52F08E4B5300474018001E4FE903C00E0E06004758200227C007D0090E678E035
:200C5E00FB74804BF0E0FB30E21090000AC007C006121323D006D00780D390E679EFF09082
:200C7E00E678E0FB20E007903C00E0E060F1903C00E0E060047582002290E678E0FB20E265
:200C9E00AC90E678E0FB20E11C90E678E0FB74404BF090E678E0FB30E607903C00E0E0601A
:200CBE00F175820022EE600990E678E0FB74204BF090E679E0E4F534F53574012534F8E46D
:200CDE003535F9C3E8952FE99530506A90E678E0F920E007903C00E0E060F1903C00E0E085
:200CFE0060047582002290E678E0F930E203020C4B74022534F8E43535F9E8B52F0DE9B59F
:200D1E00300990E678E0F9742049F0A834A9350534E4B534020535AC34AD35E82531F8E90B
:200D3E003532F9AB3390E679E0FA888289838BF01212C8020CD890E678E0FB20E007903C8F
:200D5E0000E0E060F1903C00E0E060047582002290E678E0FB30E203020C4B90E678E0FF57
:200D7E0074404FF0EC2531FCED3532FDAF3390E679E0FE8C828D838FF01212C890E678E0CD
:200D9E00FF30E607903C00E0E060F1903C00E0E06004758200227582012285823DE4F541BB
:200DBE00F542AB36AC37C3E5419538E54295394003020E4A7A0090E678E0FF30E4067A01F6
:200DDE008C078F3E8A070AEF243EF98B06A7068A070AEF243EF9AE41AF420541E4B541028B
:200DFE000542EE253AFEEF353BFFAD3C8E828F838DF012137BF78A2275230075243E752511
:200E1E0000752640E4F527F528F529F52AF52B853D82C004C003120ABEE582D003D004703C
:200E3E0003F582220BBB00010C020DC475820122AF827E0090E678E0FD30E4067E01AD4434
:200E5E008D4A8E050EED244AF9AC43A7048E2275230075244A752500752640E4F527F52851
:200E7E00F529F52AF52B8F82C007120ABEE582D0077003F5822285452F8546308547318585
:150E9E0048328549338F82120C2FE5827003F5822275820122D9
:06008800E478FFF6D8FD4C
:1200D1007514007515007516A675173D75181C75193D9C
:200EB30090E6B9E0FF24F45003020FB9EF240A83F582EF241083F583E473E5FBB911B9B934
:200ED30027B9374E669A0E0E0F0F0F0F0F0F0F0F0F0F121033E5826003020FCF90E6A0E0F3
:200EF300FF74014FF0020FCF1210C0E5826003020FCF90E6A0E0FF74014FF0020FCF121114
:200F13002FE5826003020FCF90E6A0E0FF74014FF0020FCF120749E5826003020FCF12112D
:200F3300DF020FCF120634AF8290E740EFF090E68AE4F090E68B04F0020FCF90E6BAE0F51E
:200F530082120638E582707490E6A0E0FF74014FF0806990E6BCE0FF754C13754D00754E65
:200F7300408F82120610E582700B90E6A0E0FF74014FF0804790E740E513F090E68AE4F020
:200F930090E68B04F0803590E6BCE0FF90E6BAE0F5128F82120625E582702190E6A0E0FF31
:200FB30074014FF0801690E6B9E0F58212074DE582700990E6A0E0FF74014FF090E6A0E069
:200FD300FF74804FF022AF828F0653067FEE24F7500302102FEE240A83F582EE240D83F5C2
:200FF30083E473080C1F2F232F272F2B10101010101010101090E6A022EF30E7067EA27F5C
:20101300E680047EA17FE68E828F832290E6A32290E6A42290E6A52290E6A62290000022E7
:2010330090E6B8E0FFBF8002801FBF81028005BF8273803490E740E4F090E741F090E68A4E
:20105300F090E68B7402F08060E51525E0FFE514420790E740EFF090E741E4F090E68AF0F4
:2010730090E68B7402F0804190E6BCE0F582120FD9AE82AF838E048F05EE4F7003F58222E1
:201093008C828D83E0FC30E0047F0180027F0090E740EFF090E741E4F090E68AF090E68B9B
:2010B3007402F08004758200227582012290E6B8E0FF6005BF0258801B90E6BAE0FFBF010B
:2010D30005751500805290E6BAE0FFBF060280487582002290E6BAE0703190E6BCE0F582AB
:2010F300120FD9AE82AF83E0FD5305FE8E828F83EDF090E6BCE0FF30E70343071053071F51
:2011130090E683EFF074204FF0800D7582002290E6B9E0F58202074D7582012290E6B8E067
:20113300FF6005BF026E802690E6BAE0FFBF02030211B090E6BAE0FFBF0105751501805D91
:2011530090E6BAE0FFBF060280537582002290E6BAE0703C90E6BCE0F582120FD9AE82AF9C
:2011730083EE4F7003F582228E828F83E0FD4305018E828F83EDF090E6BCE0FF30E70343DB
:20119300071053071F90E683EFF074204FF0800D7582002290E6B9E0F58202074D75820187
:2011B30022AF82D20210AF02C202EF600E75161C75173D7518A675193D800C7516A675175C
:2011D3003D75181C75193DA20292AF2290E6BBE0FFBF01028019BF02028029BF03028033F6
:2011F300BF060302129ABF07030212AF0212BE7E007F3D8F0690E6B3EEF07E007F3D90E682
:20121300B4EEF022AF1790E6B3EFF0AE1690E6B4EEF0227DE07E3D7F8090E6BAE0F54C7B68
:20123300008B020BEAB54C0280428D008E018F028D828E838FF012137B28F8E439F98805A5
:2012530089068A0774012DF9E43EFA8F0489828A838CF012137BF9B9030280067D007E00A5
:201273007F00ED4E6006C3E54C9B50B5ED4E600D8E0790E6B3EFF090E6B4EDF02290E6A023
:20129300E0FF74014FF0227E127F3D8F0690E6B3EEF07E127F3D90E6B4EEF022AF1990E6EA
:1512B300B3EFF0AE1890E6B4EEF02290E6A0E0FF74014FF022D9
:200066007900E94400601B7A009016C4780175923CE493F2A308B800020592D9F4DAF27546
:0200860092FFE7
:1B12C80020F71130F6138883A88220F509F6A8837583002280FEF280F5F02225
:203F0000020197000213DE000213D30002025C000201BE0002020D000213D00002131700E9
:203F20000213190002131A0002131B0002131E000213DD000213DF000212E3000212E500EB
:203F40000213D50002131700021397000213D1000213D2000213D4000213D6000213D70012
:203F600002137A000213170002131700021317000213180002131C0002131F000213210066
:203F800002131D000213200002132200021379000212E60002131100021313000213150083
:183FA0000212E7000213120002131400021316000212E4000213DC00AA
:0112E30032D8
:0112E40032D7
:0112E50032D6
:0112E60032D5
:0112E70032D4
:20008E007800E84400600A790075923CE4F309D8FC7801E84400600C7901903C00E4F0A306
:0400AE00D8FCD9FAA7
:2012E8007A10E4FBFCE58225E0F582E58333F583EB33FBEC33FCEB954CF5F0EC954D400692
:09130800FCABF0438201DADD22A6
:0113110032A9
:0113120032A8
:0113130032A7
:0113140032A6
:0113150032A5
:0113160032A4
:0113170032A3
:0113180032A2
:0113190032A1
:01131A0032A0
:01131B00329F
:01131C00329E
:01131D00329D
:01131E00329C
:01131F00329B
:01132000329A
:011321003299
:011322003298
:20132300AE82AF8390E600E05418C423541FFD70057CB1FD801C90E600E05418C423541FD8
:20134300FBBB01067A617B0180047AC27B028A048B058C4C8D4D154C74FFB54C02154DE54B
:161363004C454D70F1EE24FFFAEF34FFFB8A068B07EA4B70DD2247
:011379003241
:01137A003240
:0D00590075815B1213D8E58260030200562A
:1C137B0020F71430F6148883A88220F507E6A88375830022E280F7E49322E02281
:011397003223
:20139800C2D5E58330E70DD2D5E4C39582F582E49583F583E54D30E70DB2D5E4C3954CF568
:1813B8004CE4954DF54D1212E830D50BE4C39582F582E49583F58322E2
:0113D00032EA
:0113D10032E9
:0113D20032E8
:0113D30032E7
:0113D40032E6
:0113D50032E5
:0113D60032E4
:0113D70032E3
:0413D80075820022F8
:0113DC0032DE
:0113DD0032DD
:0113DE0032DC
:0113DF0032DB
:00000001FF
