:04000000020059326F
:01000B0032C2
:0100130032BA
:01001B0032B2
:0100230032AA
:03002B000201FBD4
:0300330002013295
:01003B003292
:03004300023F0079
:01004B003282
:03005300023F0069
:1C00B200750800750900750A02750B00750CF4750D01750EF4750F01C200C201BD
:0300E000020056C5
:030056000207C1DD
:2000E300AF827401B54C0280157402B54C0280127405B54C02800F740AB54C12800C7E24EA
:2001030080107E12800C7E0080087E36800475820022EF60067D707F0080047D0E7F00ED9D
:20012300F4FFE5805207ED5E4FF58075820122C2DC32C0E0C082C083D2005391EF90E65D75
:200143007401F0D083D082D0E032C021C0E0C0F0C082C083C007C006C005C004C003C0025F
:20016300C001C000C0D075D0007582001212105391EF90E65D7410F0D0D0D000D001D002CE
:20018300D003D004D005D006D007D083D082D0F0D0E0D02132C021C0E0C0F0C082C083C085
:2001A30007C006C005C004C003C002C001C000C0D075D0007582011212105391EF90E65D39
:2001C3007420F0D0D0D000D001D002D003D004D005D006D007D083D082D0F0D0E0D0213224
:2001E300C0E0C082C083D2015391EF90E65D7408F0D083D082D0E032C0E0C007C006C0D0AE
:2002030075D000B2A2AE0EAF0F150E74FFB50E02150FEE4F700A850C0E850D0FB2A0D2A18D
:20022300C2CFD0D0D006D007D0E032E582FF30E00BADB17E004305088DB1800353B1F7EFA3
:2002430030E408AEB14306018EB12253B1FE22850A4C754D00905DC01213EFAE82AF83ACE5
:20026300097D00C3EC9EED64808FF063F08095F0400990E640E053E07FF02290E640E0FFC8
:2002830043078090E640EFF02285820A7401B50A0280057402B50A18AF0A74072FF50B90CE
:2002A300E618F090E61AE50BF0120252758201227582002290E6F574FFF000000000E5BBD6
:2002C30060FC90E6047480F00000000090E618E4F00000000090E61AE4F00000000090E625
:2002E300047402F00000000090E6047406F00000000090E618E50BF00000000090E61AE5CA
:200303000BF00000000090E604E4F02290E6F574FFF000000000E50870057E06FF80047EBA
:20032300027F0090E648EEF022D2871202B77EE87F03EE24FFFCEF34FFFD8C068D07EC4DE4
:2003430070F0E5BB30E7FB0000000090E6D07428F00000000090E6D1E4F0E50870057E06B5
:20036300FF80047E047F008EBB22AF8290E680E030E7067D1C7E3D80047DA67E3DEF75F05D
:2003830010A42416FBE435F0FCEB2DFDEC3EFC7E80EFF508703590E612E4F090E61474E068
:2003A300F090E6E27401F08D828C838EF01213D290E625F074012DFAE43CFB8E078A828B8C
:2003C300838FF01213D290E624F02290E61274D8F090E614E4F090E6D204F08D828C838E6B
:2003E300F01213D290E621F00DBD00010C8D828C838EF01213D2FF90E62074075FF08D82B4
:200403008C838EF01213D2C423541F90E64004F0020252AF827E00EE75F004A4FCADF02494
:20042300CBF582ED3416F583E493FBB5070280080EBE14E375820022EC24CBFCED3416FD29
:200443008C828D83A3E493FDA3E493FEA3E493FF75AF07759DE4759E007C208C031CEB606D
:20046300168D828E838FF01213D2FBA3AD82AE8390E67CEBF080E47F608F061FEE60079026
:20048300E67CE4F080F375820122AF82BF00028064BF0103020524BF0203020532BF05030E
:2004A300020540BF0A0302054EBF140302055CBF320302056ABF6403020578BF69028017CD
:2004C300BF6A028021BF6E02802BBF78028035BF9602803F020586750C19750D0075CAC0C7
:2004E30075CB6302058A750C1E750D0075CACB75CB7D02058A750C32750D0075CAE075CBB8
:20050300B102058A750C64750D0075CAF075CBD802058A750CFA750D0075CA6075CBF0800B
:2005230066750CF4750D0175CA3075CBF88058750CE8750D0375CA1875CBFC804A750CC44B
:20054300750D0975CA7075CBFE803C750C88750D1375CA3875CBFF802E750C10750D2775B3
:20056300CA9C75CBFF8020750CA8750D6175CAD875CBFF8012750C50750DC375CAEC75CBBE
:20058300FF80047582002275820122AD4CAE4DAF4E8D828E838FF0E50812132075820122C6
:2005A300E582700685108212036D75820122758200227582012290E6BBE0FE7F0090E6BAB7
:2005C300E07C004207EC420690E6BFE0FC7D0090E6BEE07A004205EA420490E6A0E020E1B5
:2005E300F990E6B8E0FBBB40028073BBC00280030206BAED4C70030206BEC374409DE49C3E
:2006030050067A407B0080048D028C0390E6A0E020E1F98A457546007547407548E77549D2
:20062300008F438E44758251C007C006C005C004C002120E57D002D004D005D006D00790C4
:20064300E68AE4F00000000090E68BEAF07B00EDC39AFDEC9BFCEA2FFFEB3EFE8095ED4CA6
:20066300605990E68BE4F090E6A0E020E1F990E68BE0FB8B38753900753A40753BE7753C75
:20068300008F368E37758251C007C006C005C004C003120DC2E582D003D004D005D006D042
:2006A300077003F582227A00EB2FFFEA3EFEEDC39BFDEC9AFC80A7758200227582012275D2
:2006C300820022AF82C00712030FD007C2A0D2A1750EE8750F03BFE0004015EF2419401049
:2006E30090E68AE4F090E68BF090E6A0E020E1F9BFA2028023BFE0028021BFE1028028BFF1
:20070300E202802FBFE3028033BFE4028047BFE502804BBFE65E80530205B990E740E0F5ED
:200723004C7582000200E390E740E0F54C7582010200E390E740E0F58202041690E740E018
:20074300FFBF010DD2A0C2A1850C0E850D0F12032C7582012290E740E0F58202028C90E745
:2007630040E0F58212022E7582012290E740E0F58202048D7582002290E613E4F090E615E1
:20078300F0D28790E6C2E4F090E6C37480F090E6C0E4F090E6F4F012030F754C01758200A3
:2007A3001200E3754C017582011200E375820112041675820212028C75820002036D90E6F6
:2007C30000E054E74410F01208DD12077BD2E890E668E0FF43070890E668EFF090E65CE0F4
:2007E300FF43070190E65CEFF0E0FF43071090E65CEFF0E0FF43072090E65CEFF0E0FF43F5
:20080300070890E65CEFF0D2DDD2AF75CA3075CBF875C800D2ADD2CA90E680E043E00AF0F3
:200823009005DC12137B90E680E053E0F7F090E672E4F090E671F090E670F075B109F5A087
:20084300F58075B6FF75B4FF75B2FFC2A0D2A11000028003120EBB10010280F390E682E005
:2008630043E0C0F090E6817401F0AE877F004306018E8700000000000000E513701C90E639
:2008830082E030E60790E682E020E0D090E682E030E70790E682E020E1C290E682E030E6AF
:2008A3000790E682E020E00E90E682E030E7A090E682E030E19990000512137B90E680E02C
:2008C300FF43070190E680EFF090000F12137B90E680E053E0FEF00208527E107F3E754C58
:2008E30030754D31754E32754F337550347551357552367553377554387555397556417571
:200903005742755843755944755A45755B4674182EFCE43FFD90E507E0FB5303F0E4C4CB09
:20092300C4540F6BCB540FCB6BCB30E30244F0EB244CF987038C828D83EBF074162EFCE43B
:200943003FFD90E507E0FB53030FEB244CF987038C828D83EBF074142EFCE43FFD90E50876
:20096300E0FB5303F0E4C4CBC4540F6BCB540FCB6BCB30E30244F0EB244CF987038C828D5D
:2009830083EBF074122EFCE43FFD90E508E0FB53030FEB244CF987038C828D83EBF074100E
:2009A3002EFCE43FFD90E509E0FB5303F0E4C4CBC4540F6BCB540FCB6BCB30E30244F0EBE3
:2009C300244CF987038C828D83EBF0740E2EFCE43FFD90E509E0FB53030FEB244CF98703C0
:2009E3008C828D83EBF0740C2EFCE43FFD90E50AE0FB5303F0E4C4CBC4540F6BCB540FCB93
:200A03006BCB30E30244F0EB244CF987038C828D83EBF0740A2EFCE43FFD90E50AE0FB5308
:200A2300030FEB244CF987038C828D83EBF074082EFCE43FFD90E50BE0FB5303F0E4C4CBF0
:200A4300C4540F6BCB540FCB6BCB30E30244F0EB244CF987038C828D83EBF074062EFCE42A
:200A63003FFD90E50BE0FB53030FEB244CF987038C828D83EBF074042EFCE43FFD90E50C5D
:200A8300E0FB5303F0E4C4CBC4540F6BCB540FCB6BCB30E30244F0EB244CF987038C828D3C
:1F0AA30083EBF074022EFEE43FFF90E50CE0FD53050FED244CF987058E828F83EDF0224A
:201437008A0F0E0000000000000200010000000000505555000000000000000000000000F1
:20145700008A010100000000000002000100000000005055550000000000000000000000EC
:2014770000008AFAFAFAFAFAF900000200000000000100505555555555550000000000009F
:201497000000008AC8C8C70000000000020000010000000050555555000000000000000002
:2014B700000000008AFAF9000000000000020001000000000050555500000000000000009B
:2014D70000000000008A969500000000000002000100000000005055550000000000000043
:2014F700000000000000CA020100000000000002000100000000005055550000000000000B
:20151700000000000000008A4B4A0000000000000200010000000000505555000000000098
:2015370000000000000000008A010000000000000002010000000000005055000000000061
:201557000000000000000000008A1E1D0000000000000200010000000000505555000000B2
:2015770000000000000000000000CA0101000000000000020001000000000050555500008B
:2015970000000000000000000000008A07070000000000000200010000000000505555009F
:2015B700000000000000000000000000CA01000000000000000201000000000000505500A1
:2015D700000000000000000000000000008A050400000000000002000100000000005055B9
:2015F7005500000000000000000000000000AA800000000000000003000000000000000052
:20161700000000000000000000000000000000CA06050000000000000200010000000000DB
:2016370050555500000000000000000000000000EA8000000000000000030000000000002C
:2016570000000000000000000000000000000000008A0302000000000000020001000000E1
:201677000000505555000000000000000000000000008A02020000000000000200010000C8
:2016970000000050555500000000000000000000000000CA03020000000000000200010067
:2016B7000000000050555500000000000000000000000000304816801E06168018C41580E0
:2016D700108215800F4015800CFE14800A59148008AB1680068A168005691680042716801F
:2016F70003E5158002A315800138148096611580781F15806EDD14806ABC1480699B148066
:04171700667A14805A
:203D000012010002FFFFFF40B5042A600502010203010A0600020000004001000902890019
:203D200001010080FA0904000001FF000000070586020002000904000101FF000100070549
:203D400082010014010904000201FF00010007058201000C010904000301FF000100070502
:203D600082010004010904000401FF000100070582010004020904000501FF0001000705F5
:203D800082010004030904000601FF000100070582010004040904000701FF0001000705CD
:053DA000820100020495
:203DA6000902390002010080FA0904000001FF000000070586024000000904000101FF004D
:193DC600010007058201FF03010904000201FF00010007058201000201AF
:203DE0000403090416034F00700065006E00480061006E00740065006B00160344005300F9
:203E00004F002D00360030003200320042004C001A03300030003000300030003000300061
:0C3E2000300030003000300030000000A6
:200AC20085822CE5272522FDE5283523FE752D02903C00E4F0903C00E06004758200229031
:200AE200E678E0FB7A0043038090E678EBF0E030E21090000AC006C00512137BD005D00640
:200B020080D3E52C25E0FB90E679F090E678E020E006903C00E060F3903C00E060047582B6
:200B2200002290E678E020E2AC90E678E020E14090E678E0FB43034090E678EBF090E67800
:200B4200E030E606903C00E060F3903C00E0600475820022E52D14FB8B2D7003F5822290FA
:200B6200000AC006C00512137BD005D006020AD77A007B00C3EA9DEB9E4003020C0CC3EADE
:200B82009522EB95235016EA2524F8EB3525F9AC26888289838CF01213D2FC801DEAC395F4
:200BA20022F8EB9523F9E82529F8E9352AF9AF2B888289838FF01213D2FC90E679ECF00AD7
:200BC200BA00010B90E678E020E006903C00E060F3903C00E060047582002290E678E03053
:200BE200E203020AD790E678E020E18890E678E0FF43074090E678EFF090E678E030E606C6
:200C0200903C00E060F37582002290E678E0FF43074090E678EFF090E678E030E606903CE0
:200C220000E060F3903C00E060047582002275820122858233903C00E4F004B52E0814B5AA
:200C42002F0474018001E4FE903C00E06004758200227C007D0090E678E0FB43038090E660
:200C620078EBF0E030E20C90000AC00612137BD00680D5E53325E0FB3395E0FA4303019065
:200C8200E679EBF090E678E020E006903C00E060F3903C00E060047582002290E678E0202E
:200CA200E2A690E678E020E11E90E678E0FB43034090E678EBF090E678E030E606903C00EF
:200CC200E060F375820022EE600F90E678E0FB7A0043032090E678EBF090E679E0E4F5341B
:200CE200F53574012534F8E43535F9C3E8952EE9952F506C90E678E020E006903C00E06004
:200D0200F3903C00E060047582002290E678E030E203020C4A74022534F8E43535F9E8B5CF
:200D22002E13E9B52F0F90E678E0F8790043002090E678E8F0A834A9350534E4B534020565
:200D420035AC34AD35E82530F8E93531F9AF3290E679E0FB888289838FF0121320020CE4A6
:200D620090E678E020E006903C00E060F3903C00E060047582002290E678E030E203020C84
:200D82004A90E678E0FF43074090E678EFF0EC2530FCED3531FDAF3290E679E08C828D8388
:200DA2008FF012132090E678E030E606903C00E060F3903C00E06004758200227582012241
:200DC20085823DE4F541F542AB36AC37C3E5419538E54295394003020E537A0090E678E01F
:200DE20030E4067A018C078F3EEA04FFEA243EF98B02A702EF04FAEF243EF9AE41AF420578
:200E020041E4B541020542EE253AFEEF353BFFAD3C8E828F838DF01213D2F78A2275230009
:200E220075243E752500752640E4F527F528F529F52AF52B853D82C004C003120AC2E582DA
:200E4200D003D0047003F582220BBB00010C020DCE75820122AF827E0090E678E030E4067C
:200E62007E01AD448D4AEE04FDEE244AF9AE43A7068D2275230075244A752500752640E4C4
:200E8200F527F528F529F52AF52B8F82C007120AC2E582D0077003F5822285452E85462FC8
:190EA2008547308548318549328F82120C34E5827003F58222758201224D
:06008800E478FFF6D8FD4C
:1200CE007512007513007514A675153D75161C75173DAB
:200EBB0090E6B9E0FF24F45003020FE9EF240A83F582EF241083F583E473ED09E925E9E942
:200EDB0041E951688AC40E0F0F0F0F0F0F0F0F0F0F0F12106BE582600302100590E6A0E0AF
:200EFB00FF7E0043070190E6A0EFF00210051210FFE582600302100590E6A0E0FF7E00434B
:200F1B00070190E6A0EFF002100512117AE582600302100590E6A0E0FF7E0043070190E6F0
:200F3B00A0EFF00210051206C2E582600302100512123B0210051205B1AF8290E740EFF040
:200F5B0090E68AE4F090E68B04F002100590E6BAE0F5821205B5E582600302100590E6A04C
:200F7B00E0FF7E0043070190E6A0EFF002100590E6BCE0FF754C11754D00754E408F8212D7
:200F9B00058EE582701190E6A0E0FF7E0043070190E6A0EFF0805390E740E511F090E68A98
:200FBB00E4F090E68B04F0804190E6BCE0FF90E6BAE0F5108F821205A3E582702D90E6A081
:200FDB00E0FF7E0043070190E6A0EFF0801C90E6B9E0F5821206C6E582700F90E6A0E0FF7E
:200FFB007E0043070190E6A0EFF090E6A0E0FF43078090E6A0EFF022AF82747F5FFE24F7A6
:20101B005003021067EE240A83F582EE240D83F583E473404457675B675F676310101010F5
:20103B00101010101090E6A022EF30E7067EA27FE680047EA17FE68E828F832290E6A322F5
:20105B0090E6A42290E6A52290E6A6229000002290E6B8E0FFBF80028022BF81028008BF93
:20107B00820280370210F790E740E4F090E741F090E68AF090E68B7402F08064E51325E0A6
:20109B00FFE512420790E740EFF090E741E4F090E68AF090E68B7402F0804590E6BCE0F5B1
:2010BB0082121013AE82AF838E048F05EE4F7003F582228C828D83E0FC30E0067E017F007F
:2010DB0080047E007F0090E740EEF090E741E4F090E68AF090E68B7402F08004758200225F
:2010FB007582012290E6B8E0FF6005BF0264801B90E6BAE0FFBF0105751300805E90E6BA1F
:20111B00E0FFBF060280547582002290E6BAE0703D90E6BCE0F582121013AE82AF83E0FD67
:20113B005305FE8E828F83EDF090E6BCE0FF30E7098F057E004305108D0753071F90E6839E
:20115B00EFF07E0043072090E683EFF0800D7582002290E6B9E0F5820206C6758201229031
:20117B00E6B8E0FF6008BF0202802902120390E6BAE0FFBF020302120C90E6BAE0FFBF012A
:20119B0005751301806B90E6BAE0FFBF060280617582002290E6BAE0704A90E6BCE0F58298
:2011BB00121013AE82AF83EE4F7003F582228E828F83E0FD7C004305018E828F83EDF090E1
:2011DB00E6BCE0FF30E7098F057E004305108D0753071F90E683EFF07E0043072090E68323
:2011FB00EFF0800D7582002290E6B9E0F5820206C675820122AF827E0110AF027E00EF60A3
:20121B000E75141C75153D7516A675173D800C7514A675153D75161C75173DEE1392AF22E9
:20123B0090E6BBE0FFBF01028019BF02028024BF0302802CBF06030212F5BF07030213059D
:20125B000213127E007F3D90E6B3EFF090E6B47400F02290E6B3E515F090E6B4E514F02212
:20127B007DE07E3D7F8090E6BAE0F54C7B008B020BEAB54C0280428D008E018F028D828EDF
:20129B00838FF01213D228F8E439F9880589068A0774012DF9E43EFA8F0489828A838CF079
:2012BB001213D2F9B9030280067D007E007F00ED4E6006C3E54C9B50B5ED4E600F8D038E68
:2012DB000490E6B3ECF090E6B4EDF02290E6A0E0FF43070190E6A0EFF0227E127F3D90E6A8
:2012FB00B3EFF090E6B47412F02290E6B3E517F090E6B4E516F02290E6A0E0FF4307019063
:05131B00E6A0EFF02246
:200066007900E94400601B7A0090171B780175923CE493F2A308B800020592D9F4DAF275EE
:0200860092FFE7
:1B13200020F71130F6138883A88220F509F6A8837583002280FEF280F5F022CC
:203F0000020135000214350002142A000201E30002014D00020198000214270002136F004C
:203F200002137100021372000213730002137600021434000214360002133B0002133D0029
:203F400002142C0002136F000213EE00021428000214290002142B0002142D0002142E0053
:203F60000213D10002136F0002136F0002136F0002137000021374000213770002137900A7
:203F8000021375000213780002137A000213D00002133E000213690002136B0002136D00C3
:183FA00002133F0002136A0002136C0002136E0002133C000214330098
:01133B00327F
:01133C00327E
:01133D00327D
:01133E00327C
:01133F00327B
:20008E007800E84400600A790075923CE4F309D8FC7801E84400600C7901903C00E4F0A306
:0400AE00D8FCD9FAA7
:201340007A10E4FBFCE58225E0F582E58333F583EB33FBEC33FCEB954CF5F0EC954D400639
:09136000FCABF0438201DADD224E
:011369003251
:01136A003250
:01136B00324F
:01136C00324E
:01136D00324D
:01136E00324C
:01136F00324B
:01137000324A
:011371003249
:011372003248
:011373003247
:011374003246
:011375003245
:011376003244
:011377003243
:011378003242
:011379003241
:01137A003240
:20137B00AE82AF8390E600E05418C423541F70057CB1FD801C90E600E05418C423541FFB82
:20139B00BB01067A617B0180047AC27B028A048B058C4C8D4D154C74FFB54C02154DE54CA2
:1513BB00454D70F1EE24FFFAEF34FFFB8A068B07EA4B70DD223C
:0113D00032EA
:0113D10032E9
:0D00590075815B12142FE5826003020056D2
:1C13D20020F71430F6148883A88220F507E6A88375830022E280F7E49322E0222A
:0113EE0032CC
:2013EF00C2D5E58330E70DD2D5E4C39582F582E49583F583E54D30E70DB2D5E4C3954CF511
:18140F004CE4954DF54D12134030D50BE4C39582F582E49583F5832231
:011427003292
:011428003291
:011429003290
:01142A00328F
:01142B00328E
:01142C00328D
:01142D00328C
:01142E00328B
:04142F0075820022A0
:011433003286
:011434003285
:011435003284
:011436003283
:00000001FF
