:203D000012010002FFFFFF40B50422600002010203010A0600020000004001000902890026
:203D200001010080370904000001FF000000070586020002000904000101FF00010007050C
:203D400082010014010904000201FF00010007058201000C010904000301FF000100070502
:203D600082010004010904000401FF000100070582010004020904000501FF0001000705F5
:203D800082010004030904000601FF000100070582010004040904000701FF0001000705CD
:053DA000820100020495
:203DA6000902390002010080370904000001FF000000070586024000000904000101FF0010
:193DC600010007058201FF03010904000201FF00010007058201000201AF
:203DE000040309040E0373006900670072006F006B0010036600780032006C0061006600B9
:203E000077001C03480061006E00740065006B002000360030003200320042004500000040
:040000000201B9320E
:01000B0032C2
:0100130032BA
:01001B0032B2
:0100230032AA
:03002B0002034B82
:0300330002028244
:01003B003292
:01004300328A
:01004B003282
:01005300327A
:01005B003272
:01006300326A
:03006B0002028509
:0300730002114B2C
:03007B0002091265
:0300830002033342
:03008B0002029DD1
:030093000202E87E
:03009B0002090F48
:0300A300021175D2
:0300AB00021176C9
:0300B300021177C0
:0300BB0002117AB5
:0300C30002114ADD
:0300CB00021167B8
:0300D300021168AF
:0300DB0002116AA5
:0300E300020D0DFE
:0300EB000211F20D
:0300F300020910EF
:0300FB00020911E6
:03010300020D0CDE
:03010B00020D0ED4
:03011300020D0FCB
:03011B000211D5F9
:0301230002117353
:03012B0002117846
:0301330002117B3B
:03013B0002117D31
:0301430002117432
:03014B0002117925
:0301530002117C1A
:03015B0002117E10
:030163000211D4B2
:03016B0002116B13
:0301730002116D09
:03017B0002116FFF
:03018300021171F5
:03018B0002116CF2
:0301930002116EE8
:03019B00021170DE
:0301A300021172D4
:0301AB00021169D5
:0301B300021149ED
:0C021200750800E4F509F50AC200C201FD
:030230000201B612
:0301B6000208003C
:20023300AF827401B5130280157402B5130280127405B51302800F740AB51312800C7E4858
:2002530080107E24800C7E0080087E6C800475820022EF60067DE07F0080047D1C7F00ED86
:20027300F4FFE5A05207ED5E4FF5A075820122C2DC32C0E0C082C083D2005391EF90E65DE4
:200293007401F0D083D082D0E032C021C0E0C0F0C082C083C007C006C005C004C003C0020E
:2002B300C001C000C0D075D0007582001210395391EF90E65D7410F0D0D0D000D001D00256
:2002D300D003D004D005D006D007D083D082D0F0D0E0D02132C021C0E0C0F0C082C083C034
:2002F30007C006C005C004C003C002C001C000C0D075D0007582011210395391EF90E65DC1
:200313007420F0D0D0D000D001D002D003D004D005D006D007D083D082D0F0D0E0D02132D2
:20033300C0E0C082C083D2015391EF90E65D7408F0D083D082D0E032C0E0C0D0B287E509C2
:20035300450A6013150974FFB50902150AE509450A7004D2A0D2A1C2CFD0D0D0E032E58248
:20037300FF30E00BADB17E004305088DB1800353B1F7EF30E408AEB14306018EB12253B14F
:20039300FE22AF82BF01028003BF021174072FFF90E618F090E61AEFF0758201227582003B
:2003B3002290E6F574FFF000000090E6047480F000000090E6047482F000000090E604748E
:2003D30086F000000090E604E4F02290E6F574FFF0000000E50870057E06FF80047E027FEE
:2003F3000090E648EEF0221203B47EE87F03EE24FFFCEF34FFFD8C068D07EC4D70F0E5BBF0
:2004130030E7FB00000090E6D07428F000000090E6D1E4F0E50870057E06FF80047E047F60
:20043300008EBBD2A0C2A1E4F509F50A22AF8290E680E030E7067D1C7E3D80047DA67E3DAE
:200453008F03E4CBC4CB6BCB54F0CB6BFC74162BFBE43CFCEB2DFDEC3EFC7E80EFF50870AC
:200473003590E612E4F090E61474E0F090E6E27401F08D828C838EF01211D690E625F074B9
:20049300012DFAE43CFB8E078A828B838FF01211D690E624F02290E61274D8F090E614E401
:2004B300F090E6D204F08D828C838EF01211D690E621F00DBD00010C8D828C838EF012114B
:2004D300D6FF90E62074075FF08D828C838EF01211D6C423541F90E64004F022AF827E006A
:2004F300EE75F007A4FCADF024F7F582ED3411F583E493FBB5070280080EBE0CE3758200AC
:2005130022EC24F7FCED3411FD74062CF582E43DF583E49390E601F075AF07759DE4759EAC
:20053300008C828D83A3E49390E67CF08C828D83A3A3E49390E67CF07401F0E4F0F0F0F0C8
:20055300F08C828D83A3A3A39390E67CF08C828D83A3A3A3A3E49390E67CF07401F0E4F0E0
:20057300F0F0F0F08C828D83A3A3A3A3A39390E67CF07444F0F0E4F0F0F0F0F0F0F0F0F0FA
:20059300F0F0F0F07F0090E67CE4F00FBF600040F575820122AF82BF0002800FBF01028003
:2005B30014BF0A028019BF322A801E75CAF075CBD87582012275CA1875CBFC758201227574
:2005D300CA9C75CBFF7582012275CAEC75CBFF7582012275820022AD13AE14AF158D828EC9
:2005F300838FF0E50812114C75820122E5827006850B821204407582012275820022758201
:20061300012290E6BBE0FE7F0090E6BAE07C004207EC420690E6BFE0FC7D0090E6BEE07AF1
:20063300004205EA420490E6A0E020E1F990E6B8E0FBBB40028072BBC0028003020715ED3D
:200653004C7003020719C374409DE49C50067A407B0080048D028C0390E6A0E020E1F98A6B
:20067300457546007547407548E77549008F438E44758251C007C006C005C004C002120C27
:20069300A8D002D004D005D006D00790E68AE4F000000090E68BEAF07B00EDC39AFDEC9B7F
:2006B300FCEA2FFFEB3EFE8096ED4C605990E68BE4F090E6A0E020E1F990E68BE0FB8B3880
:2006D300753900753A40753BE7753C008F368E37758251C007C006C005C004C003120C1346
:2006F300E582D003D004D005D006D0077003F582227A00EB2FFFEA3EFEEDC39BFDEC9AFCC8
:2007130080A77582002275820122AF82C0071203DED007C2A0D2A17509E8750A03BFE0004E
:200733004015EF2419401090E68AE4F090E68BF090E6A0E020E1F9BFA2028023BFE00280F9
:2007530021BFE102801CBFE202802ABFE3028032BFE402803CBFE5028044BFE64980430206
:200773000615EF2420FF90E740E0F5138F821202337582012290E740E0F5821204EF7582FE
:20079300012290E740E0FFBF01031203FA7582012290E740E0F582120395758201227582D8
:2007B3000122758201227582002290E613E4F090E615F090E6C2F090E6C37480F090E6C07D
:2007D300E4F090E6F4F01203DE751301758200120233751301758201120233758201120448
:2007F300EF75820212039575820002044090E600E053E0E7F01207BDE500D2E890E668E084
:20081300FF43070890E668EFF090E65CE0FF43070190E65CEFF0E0FF43071090E65CEFF020
:20083300E0FF43072090E65CEFF0E0FF43070890E65CEFF0D2DDD2AF75CA0C75CBFE75C8D3
:2008530000D2ADD2CA90E680E043E00AF09005DC12117F90E680E053E0F7F090E672E4F0B8
:2008730090E671F090E670F075B6FF75B4FF75B2FF1000028003120D1010010280F390E680
:2008930082E043E0C0F090E6817401F0AE877F004306018E8700000000000000E50E701C22
:2008B30090E682E030E60790E682E020E0D090E682E030E70790E682E020E1C290E682E01F
:2008D30030E60790E682E020E00E90E682E030E7A090E682E030E19990000512117F90E644
:1C08F30080E0FF43070190E680EFF090000F12117F90E680E053E0FEF0020884A4
:2011F700308000030000EA1E8000030000AA180100020140CA100101020040CA0C0201029B
:201217000040CA080302020040CA040605020040CA020C0B020040CA011817020040CA32E6
:14123700302F020040CA147877020040CA0AF0EF020040CA34
:01090F0032B5
:0109100032B4
:0109110032B3
:0109120032B2
:2009130085822CE5272522FDE5283523FE752D02903C00E4F0903C00E060047582002290E1
:20093300E678E0FB7A0043038090E678EBF0E030E21090000AC006C00512117FD005D006EE
:2009530080D3E52C25E0FB90E679F090E678E020E006903C00E060F3903C00E06004758267
:20097300002290E678E020E2AC90E678E020E14090E678E0FB43034090E678EBF090E678B1
:20099300E030E606903C00E060F3903C00E0600475820022E52D14FB8B2D7003F5822290AB
:2009B300000AC006C00512117FD005D0060209287A007B00C3EA9DEB9E4003020A5DC3EAEE
:2009D3009522EB95235016EA2524F8EB3525F9AC26888289838CF01211D6FC801DEAC395A3
:2009F30022F8EB9523F9E82529F8E9352AF9AF2B888289838FF01211D6FC90E679ECF00A86
:200A1300BA00010B90E678E020E006903C00E060F3903C00E060047582002290E678E03003
:200A3300E20302092890E678E020E18890E678E0FF43074090E678EFF090E678E030E60626
:200A5300903C00E060F37582002290E678E0FF43074090E678EFF090E678E030E606903C91
:200A730000E060F3903C00E060047582002275820122858233903C00E4F004B52E0814B55B
:200A93002F0474018001E4FE903C00E06004758200227C007D0090E678E0FB43038090E611
:200AB30078EBF0E030E20C90000AC00612117FD00680D5E53325E0FB3395E0FA4303019014
:200AD300E679EBF090E678E020E006903C00E060F3903C00E060047582002290E678E020DF
:200AF300E2A690E678E020E11E90E678E0FB43034090E678EBF090E678E030E606903C00A0
:200B1300E060F375820022EE600F90E678E0FB7A0043032090E678EBF090E679E0E4F534CB
:200B3300F53574012534F8E43535F9C3E8952EE9952F506C90E678E020E006903C00E060B4
:200B5300F3903C00E060047582002290E678E030E203020A9B74022534F8E43535F9E8B531
:200B73002E13E9B52F0F90E678E0F8790043002090E678E8F0A834A9350534E4B534020516
:200B930035AC34AD35E82530F8E93531F9AF3290E679E0FB888289838FF012114C020B35DD
:200BB30090E678E020E006903C00E060F3903C00E060047582002290E678E030E203020A37
:200BD3009B90E678E0FF43074090E678EFF0EC2530FCED3531FDAF3290E679E08C828D83E8
:200BF3008FF012114C90E678E030E606903C00E060F3903C00E060047582002275820122C8
:200C130085823DE4F541F542AB36AC37C3E5419538E54295394003020CA47A0090E678E080
:200C330030E4067A018C078F3EEA04FFEA243EF98B02A702EF04FAEF243EF9AE41AF420528
:200C530041E4B541020542EE253AFEEF353BFFAD3C8E828F838DF01211D6F78A22752300B8
:200C730075243E752500752640E4F527F528F529F52AF52B853D82C004C003120913E5823B
:200C9300D003D0047003F582220BBB00010C020C1F75820122AF827E0090E678E030E406DD
:200CB3007E01AD448D4AEE04FDEE244AF9AE43A7068D2275230075244A752500752640E475
:200CD300F527F528F529F52AF52B8F82C007120913E582D0077003F5822285452E85462F29
:190CF3008547308548318549328F82120A85E5827003F5822275820122AF
:010D0C0032B4
:010D0D0032B3
:010D0E0032B2
:010D0F0032B1
:0601E800E478FFF6D8FDEB
:12021E00750D00750E00750FA675103D75111C75123D77
:200D100090E6B9E0FF24F45003020E34EF240A83F582EF241083F583E473425E347A3434C4
:200D300096349CB3D50F0D0D0E0D0E0E0D0E0D0D0D0E120EB6E5826003020E5090E6A0E00F
:200D5000FF7E0043070190E6A0EFF0020E50120F4AE5826003020E5090E6A0E0FF7E00431B
:200D7000070190E6A0EFF0020E50120F98E5826003020E5090E6A0E0FF7E0043070190E6EF
:200D9000A0EFF0020E50121064020E5012060DAF8290E740EFF090E68AE4F090E68B04F0C9
:200DB000020E5090E6BAE0F582120611E5826003020E5090E6A0E0FF7E0043070190E6A015
:200DD000EFF0020E5090E6BCE0FF75130C7514007515408F821205EAE582701190E6A0E0DC
:200DF000FF7E0043070190E6A0EFF0805390E740E50CF090E68AE4F090E68B04F0804190A1
:200E1000E6BCE0FF90E6BAE0F50B8F821205FFE582702D90E6A0E0FF7E0043070190E6A032
:200E3000EFF0801C90E6B9E0F58212071DE582700F90E6A0E0FF7E0043070190E6A0EFF0D2
:200E500090E6A0E0FF43078090E6A0EFF022AF82747F5FFE24F75003020EB2EE240A83F567
:200E700082EE240D83F583E4738B8FA2B2A6B2AAB2AE0E0E0E0E0E0E0E0E0E90E6A022EFFA
:200E900030E7067EA27FE680047EA17FE68E828F832290E6A32290E6A42290E6A52290E62A
:200EB000A6229000002290E6B8E0FFBF80028022BF81028008BF82028037020F4290E740EA
:200ED000E4F090E741F090E68AF090E68B7402F08064E50E25E0FFE50D420790E740EFF083
:200EF00090E741E4F090E68AF090E68B7402F0804590E6BCE0F582120E5EAE82AF838E043F
:200F10008F05EE4F7003F582228C828D83E0FC30E0067E017F0080047E007F0090E740EEB0
:200F3000F090E741E4F090E68AF090E68B7402F08004758200227582012290E6B8E0FF60AA
:200F500005BF0237801190E6BAE0FFBF0105750E0080317582002290E6BAE0701A90E6BC06
:200F7000E0F582120E5EAE82AF83E0FD5305FE8E828F83EDF0800D7582002290E6B9E0F54E
:200F90008202071D7582012290E6B8E0FF6008BF0202802002102C90E6BAE0FFBF02030294
:200FB000103590E6BAE0FFBF0106750E010210357582002290E6BAE0705E90E6BCE0F582BC
:200FD000120E5EAE82AF83EE4F7003F582228E828F83E0FD7C004305018E828F83EDF09085
:200FF000E6BCE0FF53070F90E6BCE0FE530680E4C423CEC423541F6ECE541FCE6ECE30E44E
:201010000244E0FD90E683EE2FF0E0FF7E0043072090E683EFF0800D7582002290E6B9E043
:20103000F58202071D75820122AF827E0110AF027E00EF600E750F1C75103D7511A6751288
:201050003D800C750FA675103D75111C75123DEE1392AF2290E6BBE0FFBF01028019BF02D5
:20107000028024BF0302802CBF060302111EBF070302112E02113B7E007F3D90E6B3EFF0B7
:2010900090E6B47400F02290E6B3E510F090E6B4E50FF0227DE07E3D7F8090E6BAE0F51323
:2010B0007B008B020BEAB5130280428D008E018F028D828E838FF01211D628F8E439F98894
:2010D0000589068A0774012DF9E43EFA8F0489828A838CF01211D6F9B9030280067D007ECC
:2010F000007F00ED4E6006C3E5139B50B5ED4E600F8D038E0490E6B3ECF090E6B4EDF0226B
:2011100090E6A0E0FF43070190E6A0EFF0227E127F3D90E6B3EFF090E6B47412F02290E6DC
:19113000B3E512F090E6B4E511F02290E6A0E0FF43070190E6A0EFF02283
:2001C6007900E94400601B7A0090124B780175923CE493F2A308B800020592D9F4DAF27562
:0201E60092FF86
:011149003273
:01114A003272
:01114B003271
:1B114C0020F71130F6138883A88220F509F6A8837583002280FEF280F5F022A2
:011167003255
:011168003254
:011169003253
:01116A003252
:03004300023F0079
:203F00000202850002114B00020912000203330002029D000202E80002090F000211740037
:203F200002117500021176000211770002117A0002114A00021167000211680002116A008A
:203F4000020D0D00021174000211F2000209100002091100020D0C00020D0E00020D0F002C
:203F60000211D500021174000211740002117400021173000211780002117B0002117D0095
:203F80000211790002117C0002117E000211D40002116B0002116D0002116F00021171008A
:183FA00002116C0002116E000211700002117200021169000211490029
:01116B003251
:01116C003250
:2001EE007800E84400600A790075923CE4F309D8FC7801E84400600C7901903C00E4F0A3A5
:04020E00D8FCD9FA45
:01116D00324F
:01116E00324E
:01116F00324D
:01117000324C
:01117100324B
:01117200324A
:011173003249
:011174003248
:011175003247
:011176003246
:011177003245
:011178003244
:011179003243
:01117A003242
:01117B003241
:01117C003240
:01117D00323F
:01117E00323E
:20117F00AE82AF8390E600E05418C423541F70057CB1FD801C90E600E05418C423541FFB80
:20119F00BB01067A617B0180047AC27B028A048B058C138D14151374FFB513021514E513F6
:1511BF00451470F1EE24FFFAEF34FFFB8A068B07EA4B70DD2273
:0111D40032E8
:0111D50032E7
:0D01B90075814B1211F3E58260030201B65F
:1C11D60020F71430F6148883A88220F507E6A88375830022E280F7E49322E02228
:0111F20032CA
:0411F30075820022DF
:00000001FF
